:100000000C9434000C949B060C949B060C949B0659
:100010000C949B060C949B060C949B060C94B517B1
:100020000C94C6170C94841C0C949B060C94931788
:100030000C94A4170C945D1C0C9471170C948217EB
:100040000C94361C0C949B060C949B060C949B06FB
:100050000C949B060C949B060C949B060C949B069C
:100060000C949B060C949B061124EFEFEDBFE8E087
:10007000EEBFA0E0B1E0D3E0EEE7F9E302C0059106
:100080000D93AC36BD07D9F7ACE6B3E0D4E00C94E1
:100090004A001D92AA35BD07E1F70C942601DF93B3
:1000A000CF93CDB7DEB7C450D0400FB6F894DEBFC3
:1000B0000FBECDBF8A839B8328EC86E0622F0E940F
:1000C000B413612DAAE08A2F0E94B413612DA5E01C
:1000D0008A2F0E94B41368ECA9E08A2F0E94B413FF
:1000E000CC5FDF4F0FB6F894DEBF0FBECDBFCF9110
:1000F000DF910895DF93CF93CDB7DEB7C450D040E2
:100100000FB6F894DEBF0FBECDBF8A839B83212D2F
:1001100086E0622F0E94B41368ECAAE08A2F0E9446
:10012000B41368ECA5E08A2F0E94B413612DA9E0F6
:100130008A2F0E94B413CC5FDF4F0FB6F894DEBF56
:100140000FBECDBFCF91DF910895DF93CF93CDB791
:10015000DEB7C450D0400FB6F894DEBF0FBECDBF9F
:100160008A839B8328EC86E0622F0E94B413612D62
:10017000AAE08A2F0E94B41368ECA5E08A2F0E949F
:10018000B413612DA9E08A2F0E94B413CC5FDF4F16
:100190000FB6F894DEBF0FBECDBFCF91DF910895AB
:1001A000DF93CF93CDB7DEB7C450D0400FB6F894ED
:1001B000DEBF0FBECDBF8A839B83212D86E0622FD9
:1001C0000E94B41368ECAAE08A2F0E94B413612D38
:1001D000A5E08A2F0E94B41368ECA9E08A2F0E9440
:1001E000B413CC5FDF4F0FB6F894DEBF0FBECDBFA8
:1001F000CF91DF910895DF93CF93CDB7DEB7C45091
:10020000D0400FB6F894DEBF0FBECDBF8A839B836C
:100210002FEF86E0622F0E94B4136FEFAAE08A2FBF
:100220000E94B4136FEFA5E08A2F0E94B4136FEF02
:10023000A9E08A2F0E94B413CC5FDF4F0FB6F89469
:10024000DEBF0FBECDBFCF91DF910895DF93CF9377
:10025000CDB7DEB7C450D0400FB6F894DEBF0FBEA6
:10026000CDBF0E94C9012CEE71E0622F8EE793E0B2
:1002700040E8A5E25A2F0E94530B6CEF71E08CE628
:1002800093E0ABE04A2F0E944314612D86ED93E08A
:100290003091000420910104E32FF22F248525845E
:1002A000E22FF22D099586ED93E063E020910004A2
:1002B00030910104F90126892788E22FF22D099552
:1002C0000E949C066CE872E08EE793E00E94EC0EC0
:1002D00062E070E06C0F7D1F8CE693E00E94DB14FF
:1002E0000A80009272030B800092730330917303B3
:1002F000373070F3232F3750273009F43FC0232FB6
:100300003250223009F42FC0232F3C502C3051F0B2
:10031000232F3450243009F41BC0232F37522732A7
:1003200061F0D6CF62E972E08EE793E00E94EC0EB6
:1003300084E793E00E94FB00CBCF67E972E08EE791
:1003400093E00E94EC0E84E793E00E944F00C0CF40
:100350006AE972E08EE793E00E94EC0E84E793E096
:100360000E947A00B5CF6FE972E08EE793E00E94B9
:10037000EC0E84E793E00E94D000AACF65EA72E019
:100380008EE793E00E94EC0E84E793E00E94A500C4
:100390009FCF0E94AB1C0E94341408950895CF9300
:1003A000DF93DC01EB01FA011E161F068CF4CA175D
:1003B000DB0771F048F0AE0FBF1FCE0FDF1F2E918D
:1003C0002A933197E1F704C02D9129933197E1F7F2
:1003D000DF91CF9108951F930F93FF92EF92EE2438
:1003E000FF2400271127A0E2220F331F441F551FAF
:1003F000EE1CFF1C001F111FE61AF70A080B190B51
:1004000010F0216004C0E60EF71E081F191FAA9500
:1004100059F7B701C801EF90FF900F911F91089510
:10042000811591056105710511F40E9493050E94E3
:10043000EB01B901CA010895A82FB92F1D922D9281
:100440003D924D925D926D927D928D929D92AD9274
:10045000BD92CD92DD92ED92FD920D931D93CD93C1
:10046000DD932DB73EB72D933D932F913F912D9363
:100470003D933F932F9388270895A82FB92F1D9060
:100480002D903D904D905D906D907D908D909D90C4
:10049000AD90BD90CD90DD90ED90FD900D911D91B2
:1004A000CD91DD912D913D910FB6F8943EBF0FBED9
:1004B0002DBF2F913F912D913D913F932F93862FEB
:1004C0000895161617065CF4680F791F05C0FC0125
:1004D000408321E0820F911D86179707C0F308958E
:1004E0000E94610208954F923F922F92392F582F08
:1004F000232E71153CF0262F972F250F921D2517BF
:10050000920528F4AEEF3A2EAFEF4A2E14C0650FD5
:10051000721D362E472E0FC0E52FF22D6081641715
:1005200039F4652F722D681B730B262F972F08C087
:1005300061E0560F211C5315240470F32FEF9FEF39
:10054000822F2F903F904F900895DF93CF939F92EB
:100550008F927F926F925F924F923F922F92CDB780
:10056000DEB7C450D0400FB6F894DEBF0FBECDBF8B
:100570008A839B832B011901F201608071806114D1
:10058000710419F48A809B8031C02A813B81211536
:100590003105A9F4F301208131811216130678F494
:1005A000F3016081F301718182E090E08C0F9D1F67
:1005B0000E9470062FEF3FEFF201208331832A81E2
:1005C0003B812115310581F08A819B81F301608196
:1005D000F3017181412D0E9461022A813B81220E2B
:1005E000331EF101608271828A809B80C401CC5FDE
:1005F000DF4F0FB6F894DEBF0FBECDBF2F903F90F8
:100600004F905F906F907F908F909F90CF91DF91F0
:1006100008955F924F923F922F92382E492E522E7C
:10062000232E3114410421E009F0212D6F3F3FEFCB
:10063000730731E009F4312D322B09F046C0232D28
:10064000342D250D321DF90120813181211531050F
:1006500009F43BC0232D342D250D321DF9012081D5
:100660003181F9012081318121153105C9F0232D16
:10067000342D250D321DF90160817181232D342D1A
:10068000250D321DF90120813181FB01408151810D
:10069000F90122813381240F351F2115310549F0DD
:1006A0000E949005BC01412D512D82ED912D0E949B
:1006B000F405232D442D250D421DE22FF42F108229
:1006C0001182832D942D0E9483062F903F904F908E
:1006D0005F9008957F926F925F924F923F922F9218
:1006E000382E692E2B01722E232E3114610409F449
:1006F00037C0F201208131812115310509F430C064
:10070000F201208131812F3F2FEF320709F021C004
:100710003114610451F0232D362D270D321DF901BE
:10072000208131812115310529F482ED912D0E941E
:100730001F0616C0232D362D270D321DF9011082FC
:100740001182832D962D0E948306F2011082118260
:1007500007C0332D370D621CE32FF62D1082118256
:100760002F903F904F905F906F907F9008958115EC
:10077000910541F0412D6FEFAFE77A2F0E94730290
:10078000282F02C0212D912D822F0895DF92CF9224
:10079000BF92AF929F928F927F926F925F924F9291
:1007A0003F922F92862E272E982E392E29013A011C
:1007B000811421049104310449F40E949005BC0184
:1007C000412D512D88EC912D0E94F405412D71147D
:1007D0008CF441E0642D252D362D572D2095309534
:1007E000509561952F4F3F4F5F4FD62EC22EB32E9F
:1007F000A52E04C0D42CC52CB62CA72C3114A4F4DF
:10080000141641E009F0412D682D222D392D532D6C
:1008100020953095509561952F4F3F4F5F4F462E55
:10082000522E632E752E04C0482C522C692C732C2A
:10083000411591F02D2D3C2D4B2D5A2DB201C301A8
:100840000E94100270958095909561957F4F8F4F13
:100850009F4F1B014C010AC02D2D3C2D4B2D5A2DB5
:10086000B201C3010E9410021B014C01B101C4017D
:100870002F903F904F905F906F907F908F909F90C0
:10088000AF90BF90CF90DF9008952F929C012115DB
:10089000310561F061E0712DC901F90120813181DB
:1008A000F901208D218CE22FF22D09952F900895CA
:1008B0003F922F921C01CB0138E723E0732F622F68
:1008C000E72FF62F22E030E0240F351FD9010190E9
:1008D0000D9200800C9240835183FA0180839183B2
:1008E000FA01248235822F903F9008951F930F9331
:1008F0003F922F9290917A0320907B0320910801E0
:100900003091090121153105C9F091152104B1F08B
:10091000E92FF22D00891189248535854685578573
:10092000628173818081918120900801309009015A
:10093000F101099589ED912D0E94A40520910001F6
:10094000309101012115310529F489ED912D0E9485
:10095000260606C080910201909103010E94A40521
:100960002F903F900F911F9108953F922F9228E76B
:1009700033E01901F101208131812115310529F47C
:100980008FEF912D0E94A4050AC0F10120813181D1
:10099000F9013296D10101900D9200800C922F90B6
:1009A0003F9008955F924F923F922F9220907A034A
:1009B00030907B032114310429F481E0912D0E94B1
:1009C000A4052BC0F1014085518522853385411551
:1009D00051052105310521F4F1014080518002C00B
:1009E000412C512CF1013496019000927A03008041
:1009F00000927B03F101208931892115310531F005
:100A0000F1018089F10191890E948306C1010E9450
:100A10008D061092000110920101C2012F903F90AB
:100A20004F905F9008957F926F925F924F923F92A6
:100A30002F9220907A0330907B032114310431F0FF
:100A4000F101248135812115310529F481E0912DB1
:100A50000E94A40533C0F10124813581F90140854C
:100A6000518522853385411551052105310539F41C
:100A7000F10124813581F9014080518002C0412C6F
:100A8000512CF10164807580F301349624E030E04C
:100A9000220D331DD90101900D9200800C92F301BB
:100AA000208931892115310531F0F3018089F30165
:100AB00091890E948306C3010E948D06C2012F9076
:100AC0003F904F905F906F907F9008953F922F924C
:100AD00020907803309079032114310411F40E949E
:100AE000760440917A0350917B03FA0110861186B7
:100AF00012861386F10180819181A1E06A2F0E9404
:100B00003D022F903F9008950E94D2040E94450418
:100B100008950E9413050E9445040E9466050895E9
:100B2000812D912D0895512D612D712D88EC912DE0
:100B3000412D0E94F40508950E94CE0108950E945F
:100B40009C050E9497060895282F4FEF421719061B
:100B500030F43FEF309376031092770304C0209374
:100B60007603909377030E949F059F928F927F92C6
:100B70006F925F924F923F922F92682E392E462E9F
:100B8000872E542E752E20910401309105012115D8
:100B9000310579F0662D732D812D912D252D372D61
:100BA000442D582D2090040190900501E22DF92D3F
:100BB00009956092020130920301409200018092F7
:100BC000010150920A0170920B01809102019091F3
:100BD00003010E94A4052F903F904F905F906F906B
:100BE0007F908F909F900895DF93CF93CDB7DEB71E
:100BF000C650D0400FB6F894DEBF0FBECDBF6A839B
:100C00007B834C835D832A812B812C812D814A81BA
:100C10004B814C814D811C821D821A821B824C812A
:100C20005D816A817B810E94B505CA5FDF4F0FB687
:100C3000F894DEBF0FBECDBFCF91DF910895412D57
:100C4000512D612D712D0E94F4050895DF93CF93EE
:100C5000CDB7DEB7C650D0400FB6F894DEBF0FBE9A
:100C6000CDBF80930201909303011C821D821A82E2
:100C70001B822C812D812A812B812C812D812A811F
:100C80002B811A821B821C821D820C800092000123
:100C90000D80009201010A8000920A010B800092EF
:100CA0000B0180910201909103010E94A4052F92F3
:100CB00020910601309107012115310539F020916D
:100CC000060120900701E22FF22D0995412D512DAB
:100CD000612D712D83ED912D0E94F4052F900895C3
:100CE0004F923F922F921C01CB0120910E01409018
:100CF0000F01E22FF42D0995F101808391832F904C
:100D00003F904F9008952F92209110012090110153
:100D1000E22FF22D09952F9008952F922091100126
:100D200020901101E22FF22D09952F9008950C9437
:100D30009906F894FFCFFFCF789408952F932091D0
:100D40007C03203051F48F9380915F00F894807879
:100D5000811181E080937D038F91239520937C0303
:100D60002F9108952F9320917C032A95211531F41A
:100D70008F9380917C03811178948F9120937C03D1
:100D80002F910895DF93CF93CDB7DEB7C350D040F6
:100D90000FB6F894DEBF0FBECDBF2F93AF93BF93B6
:100DA000CF93DF93AEEAB1E0A80FB11D2C91AAE971
:100DB000B1E0A80FB11D8C91880FA0E8B1E0A80F99
:100DC000B11DCD91DC9188818223DF91CF91BF91BC
:100DD000AF912F91CD5FDF4F0FB6F894DEBF0FBEFE
:100DE000CDBFCF91DF9108952F93AF93BF93CF9352
:100DF000DF93AEEAB1E0A80FB11D2C91AAE9B1E0F2
:100E0000A80FB11D8C91880FA6E6B1E0A80FB11D07
:100E1000CD91DC91888160FF0C941107822B0C949A
:100E20001307209582238883DF91CF91BF91AF91E3
:100E30002F910895000000000000000000009105BF
:100E4000810571052F9323E062072F9198F062507E
:100E50007040804090406150704080409040161635
:100E600017061806190631F0000000000000000007
:100E70000000F1CF0895DF93CF93CDB7DEB7C55013
:100E8000D0400FB6F894DEBF0FBECDBF8A839B83E0
:100E90006C832A813B815C81412DF9015387448712
:100EA0004A815B813A812B81E32FF22F6385348560
:100EB000212DFA01E60FF31F2083CB5FDF4F0FB622
:100EC000F894DEBF0FBECDBFCF91DF910895DF93C1
:100ED000CF93CDB7DEB7CF51D0400FB6F894DEBF79
:100EE0000FBECDBF8E839F834A835B836C837D83DC
:100EF0004A815B812C813D814115510521053105D8
:100F000009F034C031E0212D3D8F2E8F62E170E079
:100F10006C0F7D1F87EB92E04D8D5E8D0E94CF019F
:100F20003D8D4E8D212DFE01E30FF41F729620831F
:100F30002E813F81F9010A8801920B8801920C8869
:100F400001920D8801920E8801920F880192088CFF
:100F50000192098C01920A8C01920B8C01920C8CEB
:100F600001920D8C01920E8C0082CFC05A814B8170
:100F70002C813D8151154105210520E83207B1F44E
:100F80004E815F813BE0212DFA01338724876E81FA
:100F90007F818091C2019091C3012E813F81F9012F
:100FA0004385F90154850E94CF01AFC02A812B816E
:100FB0002C812D81211521E00CF0212D28872885F9
:100FC000211581F02A813B815C814D8130955095BE
:100FD000409521953F4F5F4F4F4F2E873F87588B4E
:100FE000498B08C00A800E860B800F860C80088A09
:100FF0000D80098A21E02B8734EC21E039872A878C
:101000000AC039854A8524E0320F411D39874A8755
:101010002B8523952B873B8529E0231780F0298595
:101020003A85F90160817181828193812E853F85A6
:1010300048895989261737074807590714F73B8508
:1010400029E0231748F039852A853450210939874A
:101050002A872B852A952B873B852885230F2B876D
:101060008E819F816B850E943B07288523952C8765
:101070002885211531F03E814F812DE2E32FF42F99
:1010800020831D8616C02D8523952D8729853A85B9
:10109000F90120813181428193815E856F85788954
:1010A0008989521B630B740B890B5E876F87788B62
:1010B000898B29853A85F9015081618172819381FB
:1010C0008E853F852889498985173607270749076F
:1010D0000CF0D9CF29853A852450310929873A87E0
:1010E0005E816F817C85212D3D8540E3340FE52FA6
:1010F000F62FE70FF21F319730832C8523952C872D
:101100002C853B85321708F0BCCFC15EDF4F0FB690
:10111000F894DEBF0FBECDBFCF91DF910895DF936E
:10112000CF93CDB7DEB7C951D0400FB6F894DEBF2C
:101130000FBECDBF8F8398874A835B836C837D838B
:101140002E832AE030E02C0F3D1F2F8B388F8F89A4
:10115000988D412D6DE0712D0E9461022F8138859F
:10116000F9010A8401920B8401920C8401920D848E
:1011700001920E8401920F840192088801920988DD
:1011800001920A8801920B8801920C8801920D88C5
:1011900001920E8800828F8198856E810E943B07A4
:1011A0002E81213008F42CC01986298523952987A2
:1011B0006F8178854E81312D5985212D451B320B4C
:1011C0005A815F70212DECE3F1E0E50FF21F640F0F
:1011D000731FDB0100800C922A813B814C815D8171
:1011E00064E056954795379527956A95D1F72A83F8
:1011F0003B834C835D8329853E81231708F4D5CF3B
:10120000C75EDF4F0FB6F894DEBF0FBECDBFCF91E4
:10121000DF910895DF93CF93CDB7DEB7C650D040AE
:101220000FB6F894DEBF0FBECDBF8C839D836A835B
:101230007B832A815B81612D712D422F8C819D8161
:10124000A4E02A2F0E948F08CA5FDF4F0FB6F894E0
:10125000DEBF0FBECDBFCF91DF910895DF93CF9357
:10126000CDB7DEB7C650D0400FB6F894DEBF0FBE84
:10127000CDBF8A836B833A81212DEAE9F1E0E30F48
:10128000F21F00800C823A81212DEEEAF1E0E30F9B
:10129000F21F00800D822B81211531F0322F2A950B
:1012A000313009F41DC056C03C81212D330F221F5F
:1012B000ECE4F1E0E30FF21F21913081F90120818C
:1012C0003D81322B4C81212D440F221FECE4F1E0B3
:1012D000E40FF21F21914081E22FF42F30833AC0B6
:1012E0003C81212D330F221FECE4F1E0E30FF21FCC
:1012F000219140813D813095E22FF42F20813223CE
:101300004C81212D440F221FECE4F1E0E40FF21F89
:1013100021914081E22FF42F30833C81212D330F26
:10132000221FE6E6F1E0E30FF21F219140813D81AB
:101330003095E22FF42F208132234C81212D440F50
:10134000221FE6E6F1E0E40FF21F21914081E22F37
:10135000F42F3083CA5FDF4F0FB6F894DEBF0FBEA5
:10136000CDBFCF91DF910895DF93CF932F92CDB76B
:10137000DEB7C354D0400FB6F894DEBF0FBECDBF6A
:101380008D839E836B837C834A8323E070E02C0FE4
:101390007D1F622F8D819E8122E0312D412D512DA7
:1013A0000E94A5028D839E832D813E8121153105EA
:1013B00009F460C047E050E04C0F5D1F6DE070E045
:1013C0006C0F7D1F81E0912D0E9458040E941C0229
:1013D0008CA3811579F48D819E814A81612D712DB7
:1013E0000E94470A2D813E81F9018081A1E06A2F88
:1013F0000E942E090E94B5042CA1211509F43AC0BF
:1014000045E250E04C0F5D1F6BE270E06C0F7D1FFA
:1014100081E0912D0E9458040E941C02E2E4F0E059
:10142000EC0FFD1F80838115C1F43B812C813115A8
:10143000210579F06B817C818D819E812D813E819A
:10144000F90122813381F90126812780E22FF22DD3
:1014500009950E94B5040E9466050E94B504E2E465
:10146000F0E0EC0FFD1F2081211511F00E9489058D
:101470000E9484058D819E81CD5BDF4F0FB6F8946D
:10148000DEBF0FBECDBF2F90CF91DF910895DF93C8
:10149000CF932F92CDB7DEB7C354D0400FB6F89498
:1014A000DEBF0FBECDBF8D839E836B837C834A835B
:1014B00023E070E02C0F7D1F622F8D819E8122E042
:1014C000312D412D512D0E94A5028D839E832D81AA
:1014D0003E812115310509F456C047E050E04C0F1C
:1014E0005D1F6DE070E06C0F7D1F81E0912D0E940B
:1014F00058040E941C028CA3811529F42D813E8181
:10150000F9010A8000820E94B5042CA1211509F47A
:101510003AC045E250E04C0F5D1F6BE270E06C0F8B
:101520007D1F81E0912D0E9458040E941C02E2E47C
:10153000F0E0EC0FFD1F80838115C1F43B812C810D
:101540003115210579F06B817C818D819E812D8102
:101550003E81F90122813381F90126812780E22F22
:10156000F22D09950E94B5040E9466050E94B504FB
:10157000E2E4F0E0EC0FFD1F2081211511F00E9444
:1015800089050E9484058D819E81CD5BDF4F0FB65A
:10159000F894DEBF0FBECDBF2F90CF91DF9108959D
:1015A000DF93CF93CDB7DEB7C650D0400FB6F894D7
:1015B000DEBF0FBECDBF8C839D836A837B832C816E
:1015C0003D81412DF90140838C819D8122E0312DA7
:1015D000412D512D6A817B810E940903CA5FDF4F33
:1015E0000FB6F894DEBF0FBECDBFCF91DF91089547
:1015F000DF93CF93CDB7DEB7C450D0400FB6F89489
:10160000DEBF0FBECDBF8A839B832A813B81F90158
:1016100040814395F90140832A813B81F901208172
:101620002431E9F42A813B81412DF90140832A814B
:101630003B81F9016181212D38EE43E0562F722F55
:10164000359F602D212D739F200D549F200D112457
:10165000722F812D27FD8095982F0E941A07CC5F4D
:10166000DF4F0FB6F894DEBF0FBECDBFCF91DF9135
:101670000895DF93CF93CDB7DEB7C550D0400FB6F6
:10168000F894DEBF0FBECDBF8A839B8321E02C83FD
:101690008C81CB5FDF4F0FB6F894DEBF0FBECDBF9E
:1016A000CF91DF910895DF93CF93CDB7DEB7C454C8
:1016B000D0400FB6F894DEBF0FBECDBF8E839F83A0
:1016C0006C837D834A835B8324E070E02C0F7D1F55
:1016D000622F8E819F8122E0312D412D512D0E945C
:1016E000A5028E839F832E813F812115310509F448
:1016F0006BC048E050E04C0F5D1F6EE070E06C0F77
:101700007D1F81E0912D0E9458040E941C028DA330
:10171000811509F021C06A817B81812D912D24E002
:10172000660F771F881F991F2A95D1F7212D34E264
:1017300044EF512D0E94C60361507109810991093E
:101740007093C5006093C4001092C00028E12093FC
:10175000C10026E82093C2000E94B5042DA12115E6
:1017600009F432C046E250E04C0F5D1F6CE270E0BD
:101770006C0F7D1F81E0912D0E9458040E941C0275
:10178000E3E4F0E0EC0FFD1F8083811581F464E059
:1017900070E06C0F7D1F8E819F8122E0312D412DE5
:1017A000512D0E946A030E94B5040E9466050E94A2
:1017B000B504E3E4F0E0EC0FFD1F2081211511F0EA
:1017C0000E9489050E9484058E819F81CC5BDF4F3A
:1017D0000FB6F894DEBF0FBECDBFCF91DF91089555
:1017E000DF93CF93CDB7DEB7C750D0400FB6F89494
:1017F000DEBF0FBECDBF8D839E836A837B834C8308
:101800001EC02091C0002072E1F32A813B81F901C2
:1018100000800092C6003A814B8121E0320F411DC9
:101820003A834B832C812A952C832D813E81F901AB
:101830002181121620F48D819E810E94F80A2C814C
:10184000121608F4DECFC95FDF4F0FB6F894DEBF83
:101850000FBECDBFCF91DF910895DF93CF93CDB76A
:10186000DEB7C750D0400FB6F894DEBF0FBECDBF75
:101870008D839E836A837B834C8314C02091C00038
:101880002078E1F32A813B81F9010090C6000082B3
:101890003A814B8121E0320F411D3A834B832C81E9
:1018A0002A952C832C81121648F3C95FDF4F0FB69F
:1018B000F894DEBF0FBECDBFCF91DF910895DF93C7
:1018C000CF934F923F922F92CDB7DEB7C053D04007
:1018D0000FB6F894DEBF0FBECDBF888799876A83A5
:1018E0007B834C835D832E833F832A813B81F90177
:1018F000308121E0231708F04BC22E813F8141E067
:10190000240F311D121613060CF042C221E02C8761
:101910002A813B81F90100800D8621E02B871E86FC
:101920001A863A814B815B85212DE32FF42FE50F39
:10193000F21F00800F862A8520FFE7C18C819D81E0
:101940003E85212D46E0512D632F722F469F302D6D
:10195000212D749F200D659F200D1124FC01E30FA4
:10196000F21F0190088A0190098A01900A8A019069
:101970000B8A01900C8A00800D8A3F85353208F46D
:10198000AFC1232F35522532A1F0232F3F532F33E0
:1019900009F4B8C0232F3C502C3009F40AC1232F7E
:1019A00033502330B9F0232F3550253009F401C1CD
:1019B00097C169EB72E08885998541E02885398572
:1019C000F90122813381F90120852184E22FF22D52
:1019D000099596C14889598932E0212D431752074C
:1019E0000CF47CC0342F652F4250510972E0212D38
:1019F0003717620709F45FC0342F652F4250510931
:101A000072E0212D37176207A1F0342F652F425065
:101A1000510972E0212D3717620709F437C0342FBE
:101A2000652F4550510945E0212D34176207C9F053
:101A300055C02A893B8961E070E0620F731F2A89D3
:101A40003B89F90140818885998528853985F90187
:101A500022813381F90120852184E22FF22D09951D
:101A60004DC08A899B890E94B703482F6A897B8968
:101A70008885998528853985F90122813381F90185
:101A800020852184E22FF22D099538C08A899B890F
:101A90000E94B703482F6A897B89888599852885A4
:101AA0003985F90122813381F90120852184E22FD2
:101AB000F22D099523C062E170E06C0F7D1F8885CF
:101AC000998541E028853985F90122813381F90121
:101AD00020852184E22FF22D099510C064EC72E07C
:101AE0008885998541E028853985F90122813381EE
:101AF000F90120852184E22FF22D09952E85239569
:101B00002E87FEC0288939892115310509F03DC08D
:101B10004A895B896C897D8983E290E08C0F9D1FE7
:101B20000E9467070BA00E8A0CA00F8A0DA0088EDA
:101B30000EA0098E0FA00A8E08A40B8E09A40C8E8D
:101B40000AA40D8E0BA40E8E0CA40F8E0DA408A259
:101B50000EA409A20FA40AA236E120E03C0F2D1F1B
:101B6000332E222E632D722DE32DF22D4385888591
:101B7000998528853985F90122813381F9012085EC
:101B80004184E22FF42D099510C064EC72E0888541
:101B9000998541E028853985F90122813381F90150
:101BA00020852184E22FF22D09952E8523952E87FD
:101BB000A7C0388929893115210509F03FC04A8914
:101BC0005B896C897D8983E290E08C0F9D1FA8E082
:101BD0002A2F0E948F080BA00E8A0CA00F8A0DA03E
:101BE000088E0EA0098E0FA00A8E08A40B8E09A4E1
:101BF0000C8E0AA40D8E0BA40E8E0CA40F8E0DA4B9
:101C000008A20EA409A20FA40AA236E120E03C0F0C
:101C10002D1F332E222E632D722DE32DF22D4385A1
:101C20008885998528853985F90122813381F901D3
:101C300020854184E22FF42D09954EC03889311555
:101C400019F0353009F038C06A897B8983E290E069
:101C50008C0F9D1F0E940A090BA00E8A0CA00F8AF0
:101C60000DA0088E0EA0098E0FA00A8E08A40B8E60
:101C700009A40C8E0AA40D8E0BA40E8E0CA40F8E3C
:101C80000DA408A20EA409A20FA40AA226E130E026
:101C90002C0F3D1F1901B101F101438588859985FC
:101CA00028853985F90122813381F9012085418414
:101CB000E22FF42D099510C064EC72E088859985B7
:101CC00041E028853985F90122813381F901208598
:101CD0002184E22FF22D09952E8523952E8710C0A1
:101CE00064EC72E08885998541E028853985F901A1
:101CF00022813381F90120852184E22FF22D09957B
:101D00002B8523952C871A861FC02F852532E1F459
:101D10002B853C853217B0F46A817B813C85212D6F
:101D2000630F721F4B852C85421B888599852885FA
:101D30003985F90122813381F90120852184E22F3F
:101D4000F22D099521E02A872B8523952B873B854A
:101D50002D85231708F0E5CD2B853C85321708F03B
:101D60002EC06A817B813C85212D630F721F4B85BC
:101D70002C85421B8885998528853985F901228122
:101D80003381F90120852184E22FF22D099517C0B6
:101D90002A813B8161E070E0620F731F2A813B81E1
:101DA000F90140818885998528853985F901228145
:101DB0003381F90120852184E22FF22D0995C05D40
:101DC000DF4F0FB6F894DEBF0FBECDBF2F903F9010
:101DD0004F90CF91DF910895DF93CF932F92CDB79E
:101DE000DEB7C650D0400FB6F894DEBF0FBECDBFF1
:101DF0008C839D836A837B832A819B81822F0E94AF
:101E0000B703482F8C819D816A817B813C812D8124
:101E1000E32FF22F22813381F90120852184E22FE3
:101E2000F22D099566EC72E08C819D8142E03C8147
:101E30002D81E32FF22F22813381F9012085218426
:101E4000E22FF22D0995CA5FDF4F0FB6F894DEBF7F
:101E50000FBECDBF2F90CF91DF910895DF93CF9329
:101E60002F92CDB7DEB7CA50D0400FB6F894DEBF80
:101E70000FBECDBF888799876A837B834C835D8340
:101E80002E833F832C815D81422F6A817B818885EF
:101E900099852E813F810E945F0C66EC72E08885F7
:101EA000998542E038852985E32FF22F22813381FD
:101EB000F90120852184E22FF22D0995C65FDF4FBD
:101EC0000FB6F894DEBF0FBECDBF2F90CF91DF913C
:101ED0000895A091D403B091D5033C91311509F038
:101EE00023C030919B03311521F010929B030E9477
:101EF000AB0FAFE9B3E0A093D403B093D50325B102
:101F000030919C03232B25B928B130919D03232BBD
:101F100028B92BB130919E03232B2BB92C91224051
:101F200036B5320F38BD15C011963D9145B14323EA
:101F300045B93D9148B1432348B93D914BB1432345
:101F40004BB93C9148B5430F48BDA093D403B0931F
:101F5000D50300000895DF93CF933F922F92CDB722
:101F6000DEB7C151D0400FB6F894DEBF0FBECDBF73
:101F70003091820321E0231708F0AAC03091820338
:101F80003A95313008F4A4C01A822A8123952A8315
:101F900021E02C87409182032A81421B413008F4C2
:101FA00090C01B822B8123952B835B81212D63E0C5
:101FB000712D852F922F689F502D212D969F200DDA
:101FC000879F200D11247B81612D83E0912D272E89
:101FD000362E829D702D612D389E600D299E600DDC
:101FE0001124E1E8F3E0E50FF21F21915081E4E8CC
:101FF000F3E0E70FF61F619170816217750708F033
:102000005CC05B81212D63E0712D852F922F689F2D
:10201000502D212D969F200D879F200D1124E0E843
:10202000F3E0E50FF21F0190098601900A86008017
:102030000B865B81212D63E0712D852F922F689F88
:10204000502D212D969F200D879F200D11247B81DF
:10205000612D83E0912D272E362E829D702D612DCE
:10206000389E600D299E600D1124E3E8F3E0E70F30
:10207000F61F60E873E0650F721FDB0101900D929F
:1020800001900D9200800C925B81212D63E0712DF7
:10209000852F922F689F502D212D969F200D879F71
:1020A000200D1124E3E8F3E0E50FF21F098401920B
:1020B0000A8401920B8400821C862B81241708F469
:1020C00071CF2C85211521F42A81231708F45DCFC7
:1020D0002FEF2B831D821E821F82212D312D2D87F4
:1020E0003E871A82AEC13A81212D43E0512D632FE4
:1020F000722F469F302D212D749F200D659F200D3E
:102100001124E3E8F3E0E30FF21F3081212DEEEA22
:10211000F1E0E30FF21F00800C823A81212D43E0B1
:10212000512D632F722F469F302D212D749F200D2E
:10213000659F200D1124E3E8F3E0E30FF21F3081E7
:10214000212DEAE9F1E0E30FF21F008008863885CF
:10215000323008F41BC0232F3250223049F0232F95
:102160003A95213051F0232F3A95213059F00EC085
:102170003D812C81232B2D8309C03E812C81232B73
:102180002E8304C03F812C81232B2F833A81212D64
:1021900043E0512D632F722F469F302D212D749FC8
:1021A000200D659F200D1124E4E8F3E0E30FF21FFA
:1021B000219130814D855E85241B350B2F87388B0F
:1021C0002A81211531F02F8538891216130608F05F
:1021D000D5C02B8123952B833B81212D330F221FCB
:1021E000330F221F4FEFE0EAF3E0E30FF21F4083CB
:1021F0003B81212D330F221F330F221F4FEFE1EAC6
:10220000F3E0E30FF21F40833B81212D330F221FA8
:10221000330F221F4FEFE2EAF3E0E30FF21F408398
:102220004F8558892DE131E024173507A0F43B8113
:10223000212D330F221F330F221F4FEFEFE9F3E061
:10224000E30FF21F40833D854E852FEF320F411D76
:102250003D874E87F6C05F8548893FEF212D3517B2
:102260002407A0F43B81212D330F221F330F221F9F
:1022700040E8EFE9F3E0E30FF21F40833D854E8530
:1022800020E8320F411D3D874E87DBC04F853889DE
:102290005D852E85540F231F5D872E873B81212D61
:1022A000330F221F330F221FEFE9F3E0E30FF21F7A
:1022B0000F8400823885323008F45CC0232F3250FE
:1022C000223059F0232F3A95213009F420C0232FD2
:1022D0003A95213009F435C04DC03B81212D330F93
:1022E000221F330F221F4C814095E0EAF3E0E30FF9
:1022F000F21F208142233B81212D330F221F330FF8
:10230000221FE0EAF3E0E30FF21F408333C03B817A
:10231000212D330F221F330F221F4C814095E1EAFC
:10232000F3E0E30FF21F208142233B81212D330F85
:10233000221F330F221FE1EAF3E0E30FF21F408375
:1023400019C03B81212D330F221F330F221F4C81D7
:102350004095E2EAF3E0E30FF21F208142233B8144
:10236000212D330F221F330F221FE2EAF3E0E30F88
:10237000F21F40832A8123952A8363C03885323037
:1023800008F45CC0232F3250223059F0232F3A95A5
:10239000213009F420C0232F3A95213009F435C0AB
:1023A0004DC03B81212D330F221F330F221F4C8143
:1023B0004095E0EAF3E0E30FF21F208142233B81E6
:1023C000212D330F221F330F221FE0EAF3E0E30F2A
:1023D000F21F408333C03B81212D330F221F330F67
:1023E000221F4C814095E1EAF3E0E30FF21F2081C8
:1023F00042233B81212D330F221F330F221FE1EA9D
:10240000F3E0E30FF21F408319C03B81212D330F0E
:10241000221F330F221F4C814095E2EAF3E0E30FC5
:10242000F21F208142233B81212D330F221F330FC6
:10243000221FE2EAF3E0E30FF21F40832A81239593
:102440002A83309182032A81231708F44CCE7FC05F
:102450002B8123952B833B81212D330F221F330F9B
:10246000221F4FEFE0EAF3E0E30FF21F40833B81CE
:10247000212D330F221F330F221F4FEFE1EAF3E02C
:10248000E30FF21F40833B81212D330F221F330FB7
:10249000221F4FEFE2EAF3E0E30FF21F40839D8536
:1024A0008E85412D212D6EEF71E0312D512D691B4F
:1024B000780B340B520B6F87788B5F8548892DE141
:1024C00031E025173407A0F43B81212D330F221F63
:1024D000330F221F4FEFEFE9F3E0E30FF21F4083CA
:1024E0004D853E852FEF420F311D4D873E872FC012
:1024F0005F8548893FEF212D35172407A0F43B81E4
:10250000212D330F221F330F221F40E8EFE9F3E0A4
:10251000E30FF21F40833D854E8520E8320F411DB9
:102520003D874E8714C05F8528893D854E85350FD0
:10253000421F3D874E873B81212D330F221F330FD2
:10254000221FEFE9F3E0E30FF21F0F8400822D85D5
:102550003E852E3F21E0320708F47ACF2B81239568
:102560002B834B81312D440F331F440F331F212DFB
:10257000EFE9F3E0E40FF31F20830B800092D30315
:102580000D8000929C030E8000929D030F800092AC
:102590009E03CF5EDF4F0FB6F894DEBF0FBECDBFF8
:1025A0002F903F90CF91DF910895DF93CF932F929B
:1025B000CDB7DEB7C450D0400FB6F894DEBF0FBE23
:1025C000CDBF8A830E949E06209182032A95209384
:1025D00082032A81239580918203821708F437C0F1
:1025E0002B832B812A952B832B8123952B833B8156
:1025F000212D43E0512D632F722F469F302D212D29
:10260000749F200D659F200D11245B81412D63E097
:10261000712D952F242E699F502D412D269E400D02
:10262000979F400D1124E3E8F3E0E50FF41F50E815
:1026300043E0530F421FA52FB42F01900D9201903C
:102640000D9200800C922B81281708F4CDCF0E94A8
:10265000B206CC5FDF4F0FB6F894DEBF0FBECDBF22
:102660002F90CF91DF910895DF93CF93CDB7DEB751
:10267000C450D0400FB6F894DEBF0FBECDBF8A83E2
:102680006B832B81512D322F212D412D330F551F5F
:10269000221F441F4A81212D63E0712D842F922F28
:1026A000689F402D212D969F200D879F200D11247E
:1026B000E4E8F3E0E40FF21F31935083CC5FDF4F87
:1026C0000FB6F894DEBF0FBECDBFCF91DF91089556
:1026D000DF93CF93CDB7DEB7C450D0400FB6F89498
:1026E000DEBF0FBECDBF8A836B8320918203312D65
:1026F00043E0512DB901469F9001749F300D659FB5
:10270000300D1124E3E8F3E0E20FF31F0A800082AA
:102710005B81412D312D212D550F441F331F221F69
:1027200030918203212D63E0712D832F922F689FBA
:10273000302D212D969F200D879F200D1124E4E838
:10274000F3E0E30FF21F519340832091820323951E
:1027500020938203CC5FDF4F0FB6F894DEBF0FBE2D
:10276000CDBFCF91DF910895DF93CF93CDB7DEB783
:10277000C750D0400FB6F894DEBF0FBECDBF8A83DE
:102780006B8330918203212D315021093C832D83AD
:1027900006C02C813D81215031092C833D832C8141
:1027A0002D812115A4F02C813D8143E0512DB901EB
:1027B000469F9001749F300D659F300D1124E3E812
:1027C000F3E0E20FF31F20813A81231711F73B81D9
:1027D000311511F03F3F89F41E822C812D81211586
:1027E0001CF08C810E94D5122B812F3F61E009F0F3
:1027F000612D8A810E94F40614C020918203211564
:1028000021E009F0212D2E832C812D8121152CF022
:102810008C816B810E94341304C06B818A810E9479
:10282000681321E020939B032E81211559F026B5D2
:1028300035E0230F28BD69E67FE086ED93E00E9436
:10284000CA1808C020918203211521F486ED93E077
:102850000E941B19C95FDF4F0FB6F894DEBF0FBE91
:10286000CDBFCF91DF9108952FE993E0412D64E32F
:10287000712D822F0E9470022FEC33E02093D4033D
:102880003093D5030895DF93CF932F92CDB7DEB762
:10289000C654D0400FB6F894DEBF0FBECDBF8D83B7
:1028A0009E836B837C834A8323E070E02C0F7D1F23
:1028B000622F8D819E8122E0312D412D512D0E946C
:1028C000A5028D839E832D813E812115310509F45A
:1028D00065C049E050E04C0F5D1F6FE070E06C0F89
:1028E0007D1F81E0912D0E9458040E941C028EA33E
:1028F0008115E1F427E030E02C0F3D1F38A72FA30E
:102900008FA198A5412D62E0712D0E9461028D81F9
:102910009E814A81612D712D0E94B4092D813E81D5
:10292000F90134960F800192088400820E94B50458
:102930002EA1211509F432C049E250E04C0F5D1F71
:102940006FE270E06C0F7D1F81E0912D0E945804B2
:102950000E941C028FA38115C1F43B812C8131158B
:10296000210579F06B817C818D819E812D813E8155
:10297000F90122813381F90126812780E22FF22D8E
:1029800009950E94B5040E9466050E94B5042FA116
:10299000211511F00E9489050E9484058D819E8178
:1029A000CA5BDF4F0FB6F894DEBF0FBECDBF2F90CE
:1029B000CF91DF910895DF93CF93CDB7DEB7C452A7
:1029C000D0400FB6F894DEBF0FBECDBF8A839B8385
:1029D0006C837D832C2F9D2F822F0E9474162A8555
:1029E000263009F039C05F854889212D312D5C8B57
:1029F0004D8B2E8B3F8B212D312D2A8B3B8B5D8573
:102A00004E85212D312D5A8F4B8F2C8F3D8F212DAF
:102A1000312D288F398F5989212D312D412D58A3E2
:102A200029A33AA34BA3212D312D2E8F3F8F42E1B5
:102A300050E04C0F5D1F69EC72E08EE793E022E0FE
:102A4000312D0E942E0F60EE75EA81E0912D0E94DB
:102A50001A07CE010E9474162A813B81F9018081F8
:102A60000E94C206888706B40F823E812F81231BF5
:102A70002E833E81212D4D855E85430F521F6E8131
:102A8000312D640F351F4E81212D460F231F5E818E
:102A9000312D540F321F5D873E870F800E822885AF
:102AA000211571F02985211509F401C119860D84BC
:102AB0000F860E84088A212D312D2D873E87F7C081
:102AC0002985121609F0F3C03F85288913161206CE
:102AD00008F0E7C04D855E856F857889CE010E943C
:102AE000CC16898B29892115A9F0322F2A953130EE
:102AF000D1F0322F2A95313008F4CFC0322F2A95E9
:102B000041E0431708F021C0322F2A95313009F4F3
:102B1000ACC0C3C026E02A8760EF72E08EE793E086
:102B20000E94EC0EC4C02A85211531F421E02A87C9
:102B300021E02C871B86B1C026E02A8761E073E084
:102B40008EE793E00E94EC0EB2C02A85211549F46D
:102B500026E02A8765E173E08EE793E00E94EC0EA1
:102B6000A6C02989233029F43B852C85232B2B876C
:102B700005C02C8520953B8532233B872C8520384A
:102B800009F06FC021E02C873A85313008F464C029
:102B9000232F3A95213079F0232F3A95213089F06F
:102BA000232F3A95213009F43FC0232F3A95213045
:102BB00009F441C051C02C813D81F9010B84008290
:102BC0004BC02C813D81F90130812B8523272F3F7C
:102BD00009F442C026E02A872C813D81F901508109
:102BE000412D212D312D5C8B4D8B2E8B3F8B212D3B
:102BF000312D2A8B3B8B5B85412D312D212D5A8F19
:102C00004B8F3C8F2D8F212D312D288F398F42E115
:102C100050E04C0F5D1F65E273E08EE793E021E02A
:102C2000312D0E942E0F43C02C813D81F901319638
:102C30000B84008211C02C813D81F90131812B85EB
:102C400023272F3F49F026E02A8763E473E08EE7CD
:102C500093E00E94EC0E2BC02A8523952A871B86C1
:102C60001CC02C85220F2C8718C02A85211561F4E1
:102C70004C815D812A813B81F9013496DA01019012
:102C80000D9200800C9226C026E02A876AE573E048
:102C90008EE793E00E94EC0E0AC0312D212D3F8774
:102CA000288B21E02987212D312D2D873E872A85EC
:102CB000253009F094CE2C813D815A814B81F90158
:102CC00034E020E0350F241FA32FB22F01900D9286
:102CD00000800C92CC5DDF4F0FB6F894DEBF0FBEC4
:102CE000CDBFCF91DF910895DF93CF93CDB7DEB7FE
:102CF000C850D0400FB6F894DEBF0FBECDBF8A8358
:102D00009B8324E030E02C0F3D1F2E833F838E8178
:102D10009F81412D62E0712D0E9461022A813B81D9
:102D2000412DF90143872A813B8141E0F901448724
:102D30002A813B81412DF90141873A814B81512DF7
:102D4000212DE32FF42F558726872A813B81412DA2
:102D5000512DF9014787508B4A813B81212DE42F6A
:102D6000F32F22872A813B81F90124813581F901E2
:102D70000C8001920D8000822A813B81F9013696F8
:102D800006B40082C85FDF4F0FB6F894DEBF0FBEF7
:102D9000CDBFCF91DF910895DF93CF93CDB7DEB74D
:102DA000C950D0400FB6F894DEBF0FBECDBF8E83A2
:102DB0009F836A837B834C835D832A813B812C398B
:102DC00021E0320710F418865FC02A813B81283C3D
:102DD00022E0320708F024C02C813D812C3921E00B
:102DE000320710F4188650C02C813D81283C22E027
:102DF000320718F422E0288747C02C813D81253D09
:102E000024E0320710F418863FC02C813D8129351B
:102E100028E0320718F423E0288736C0188634C02B
:102E20002A813B81283C29E1320710F418862CC006
:102E30002A813B8128382CE2320708F024C02C81FB
:102E40003D81223726E0320710F418861DC02C8100
:102E50003D8122322BE0320718F424E0288714C089
:102E60002C813D81243E2CE0320710F418860CC0E2
:102E70002C813D81243426E1320718F421E0288793
:102E800003C0188601C018868885C75FDF4F0FB65C
:102E9000F894DEBF0FBECDBFCF91DF910895AF9301
:102EA000BF93EF93FF93DC01ED91FD91E115F105E7
:102EB00099F02F933F934F935F936F937F93CF93AB
:102EC000DF938D919C910995DF91CF917F916F91C7
:102ED0005F914F913F912F91FF91EF91BF91AF91F2
:102EE00008951F920F920FB60F9211248F939F9304
:102EF00088EF93E0D4DF9F918F910F900FBE0F90DA
:102F00001F9018951F920F920FB60F9211248F9356
:102F10009F938CEF93E0C3DF9F918F910F900FBE33
:102F20000F901F9018951F920F920FB60F921124B9
:102F30008F939F9384E294E0B2DF9F918F910F90E3
:102F40000FBE0F901F9018951F920F920FB60F9201
:102F500011248F939F9388E294E0A1DF9F918F913A
:102F60000F900FBE0F901F9018951F920F920FB6E3
:102F70000F9211248F939F9380E594E090DF9F91AF
:102F80008F910F900FBE0F901F9018951F920F9268
:102F90000FB60F9211248F939F9384E594E07FDF07
:102FA0009F918F910F900FBE0F901F901895DF93F8
:102FB000CF933F922F92CDB7DEB7C950D0400FB616
:102FC000F894DEBF0FBECDBF8A839B832A813B81ED
:102FD000F90120A02A942FEF2C832C8123952C8398
:102FE0002A815B814C81312D440F331F440F331FE5
:102FF000E22FF52FE40FF31F01900D8201900E8256
:1030000001900F82008008863F81288531152105B7
:1030100031F42D813E80E22FF32D099507C08F8179
:1030200098852D813E80E22FF32D09952C81221564
:1030300008F4D3CFC75FDF4F0FB6F894DEBF0FBEE3
:10304000CDBF2F903F90CF91DF910895DF93CF9325
:10305000CDB7DEB7C356D0400FB6F894DEBF0FBE73
:10306000CDBF8C839D836A837B8322E070E02C0F2D
:103070007D1F622F8C819D812AE2312D412D512DA2
:103080000E94A5028C839D832C813D8121153105F1
:1030900009F474C046E250E04C0F5D1F6CE270E032
:1030A0006C0F7D1F81E0912D0E9458040E941C022C
:1030B000E3E4F0E0EC0FFD1F8083811509F022C0EE
:1030C00026E030E02C0F3D1FE4E4F0E0EC0FFD1FA4
:1030D00021933083E4E4F0E0EC0FFD1F81919081B7
:1030E000412D60E2712D0E9461023C814D8120E200
:1030F000E6E0F0E0EC0FFD1FA32FB42F01900D923E
:103100002A95E1F70E94B504E3E4F0E0EC0FFD1F1F
:103110002081211509F432C046E450E04C0F5D1FB8
:103120006CE470E06C0F7D1F81E0912D0E945804CB
:103130000E941C02E4E4F0E0EC0FFD1F8083811587
:1031400081F462E070E06C0F7D1F8C819D812AE22A
:10315000312D412D512D0E946A030E94B5040E9419
:1031600066050E94B504E4E4F0E0EC0FFD1F208149
:10317000211511F00E9489050E9484058C819D8192
:10318000CD59DF4F0FB6F894DEBF0FBECDBFCF9144
:10319000DF910895DF93CF932F92CDB7DEB7C6505E
:1031A000D0400FB6F894DEBF0FBECDBF8C839D8399
:1031B0006A837B832A813B812115310509F42CC068
:1031C0002C813D81F901B6960A8001920B80008224
:1031D0004C815D81312D212DFA0121A730A78C81F1
:1031E0009D812C813D81F90122A533A5F90126811C
:1031F0002780E22FF22D0995682F64608C819D81D4
:103200002C813D81F90122A533A5F9012085218476
:10321000E22FF22D099504C08C819D810E941B191B
:10322000CA5FDF4F0FB6F894DEBF0FBECDBF2F9041
:10323000CF91DF910895DF93CF932F92CDB7DEB773
:10324000CA50D0400FB6F894DEBF0FBECDBF8A8300
:103250009B8324E030E02C0F3D1F28873987888529
:103260009985412D64E0712D0E9461022A813B8184
:10327000F901B6960C8001920D8001920E800192A8
:103280000F8000828A819B812A813B81F90122A5DE
:1032900033A5F90126812780E22FF22D0995682FA9
:1032A0006B7F8A819B812A813B81F90122A533A50D
:1032B000F90120852184E22FF22D0995C65FDF4FA9
:1032C0000FB6F894DEBF0FBECDBF2F90CF91DF9128
:1032D0000895DF93CF93CDB7DEB7C550D0400FB67A
:1032E000F894DEBF0FBECDBF8A839B8325B52870BF
:1032F000121621E008F0212D2C838C81CB5FDF4F4B
:103300000FB6F894DEBF0FBECDBFCF91DF91089509
:10331000DF93CF93CDB7DEB7C550D0400FB6F8944A
:10332000DEBF0FBECDBF8B839C836A8325B5277F0D
:103330003A81369536953695322B35BDCB5FDF4FCA
:103340000FB6F894DEBF0FBECDBFCF91DF910895C9
:10335000DF93CF93CDB7DEB7C550D0400FB6F8940A
:10336000DEBF0FBECDBF8A839B8325B527702C831C
:103370008C81CB5FDF4F0FB6F894DEBF0FBECDBFA1
:10338000CF91DF910895DF93CF93CDB7DEB7C550CE
:10339000D0400FB6F894DEBF0FBECDBF8A839B83AB
:1033A00000906E000C828C81CB5FDF4F0FB6F894DB
:1033B000DEBF0FBECDBFCF91DF910895DF93CF93D6
:1033C000CDB7DEB7C550D0400FB6F894DEBF0FBE04
:1033D000CDBF8A839B8304B40C828C81CB5FDF4F8B
:1033E0000FB6F894DEBF0FBECDBFCF91DF91089529
:1033F000DF93CF93CDB7DEB7C550D0400FB6F8946A
:10340000DEBF0FBECDBF8B839C836A8325B5287F2B
:103410003A81322B35BDCB5FDF4F0FB6F894DEBF5C
:103420000FBECDBFCF91DF910895DF93CF93CDB77E
:10343000DEB7C550D0400FB6F894DEBF0FBECDBF8B
:103440008B839C836A830A8000926E00CB5FDF4F80
:103450000FB6F894DEBF0FBECDBFCF91DF910895B8
:10346000DF93CF93CDB7DEB7C550D0400FB6F894F9
:10347000DEBF0FBECDBF8B839C836A830A8004BCF2
:10348000CB5FDF4F0FB6F894DEBF0FBECDBFCF913D
:10349000DF910895DF93CF93CDB7DEB7C550D0400D
:1034A0000FB6F894DEBF0FBECDBF8A839B8328E0A2
:1034B0002C838C81CB5FDF4F0FB6F894DEBF0FBE3D
:1034C000CDBFCF91DF910895DF93CF93CDB7DEB716
:1034D000C550D0400FB6F894DEBF0FBECDBF8A8373
:1034E0009B83209181002870121621E008F0212D85
:1034F0002C838C81CB5FDF4F0FB6F894DEBF0FBEFD
:10350000CDBFCF91DF910895DF93CF93CDB7DEB7D5
:10351000C550D0400FB6F894DEBF0FBECDBF8B8331
:103520009C836A832A81121621E009F0212D220F43
:10353000220F220F20953091810032233093810099
:10354000CB5FDF4F0FB6F894DEBF0FBECDBFCF917C
:10355000DF910895DF93CF93CDB7DEB7C550D0404C
:103560000FB6F894DEBF0FBECDBF8A839B83209138
:10357000810027702C838C81CB5FDF4F0FB6F894CE
:10358000DEBF0FBECDBFCF91DF910895DF93CF9304
:10359000CDB7DEB7C550D0400FB6F894DEBF0FBE32
:1035A000CDBF8A839B8300906F000C828C81CB5FA0
:1035B000DF4F0FB6F894DEBF0FBECDBFCF91DF91C6
:1035C0000895DF93CF93CDB7DEB7C550D0400FB687
:1035D000F894DEBF0FBECDBF8A839B83009080002E
:1035E0000C828C81CB5FDF4F0FB6F894DEBF0FBE2D
:1035F000CDBFCF91DF910895DF93CF93CDB7DEB7E5
:10360000C550D0400FB6F894DEBF0FBECDBF8B8340
:103610009C836A8320918100287F3A81322B3093EA
:103620008100CB5FDF4F0FB6F894DEBF0FBECDBF7A
:10363000CF91DF910895DF93CF93CDB7DEB7C5501B
:10364000D0400FB6F894DEBF0FBECDBF8B839C83F6
:103650006A830A8000926F00CB5FDF4F0FB6F89449
:10366000DEBF0FBECDBFCF91DF910895DF93CF9323
:10367000CDB7DEB7C550D0400FB6F894DEBF0FBE51
:10368000CDBF8B839C836A830A8000928000CB5FCE
:10369000DF4F0FB6F894DEBF0FBECDBFCF91DF91E5
:1036A0000895DF93CF93CDB7DEB7C550D0400FB6A6
:1036B000F894DEBF0FBECDBF8A839B8320E12C83AD
:1036C0008C81CB5FDF4F0FB6F894DEBF0FBECDBF4E
:1036D000CF91DF910895DF93CF93CDB7DEB7C5507B
:1036E000D0400FB6F894DEBF0FBECDBF8A839B8358
:1036F000009070000C828C81CB5FDF4F0FB6F89486
:10370000DEBF0FBECDBFCF91DF910895DF93CF9382
:10371000CDB7DEB7C550D0400FB6F894DEBF0FBEB0
:10372000CDBF8A839B832091B1002870121621E0BF
:1037300008F0212D2C838C81CB5FDF4F0FB6F894DE
:10374000DEBF0FBECDBFCF91DF910895DF93CF9342
:10375000CDB7DEB7C550D0400FB6F894DEBF0FBE70
:10376000CDBF8A839B8304B40C828C81CB5FDF4FF7
:103770000FB6F894DEBF0FBECDBFCF91DF91089595
:10378000DF93CF93CDB7DEB7C550D0400FB6F894D6
:10379000DEBF0FBECDBF8B839C836A830A800092FD
:1037A0007000CB5FDF4F0FB6F894DEBF0FBECDBF0A
:1037B000CF91DF910895DF93CF93CDB7DEB7C5509A
:1037C000D0400FB6F894DEBF0FBECDBF8B839C8375
:1037D0006A832A81121621E009F0212D220F220F7F
:1037E000220F20953091B10032233093B100CB5F8E
:1037F000DF4F0FB6F894DEBF0FBECDBFCF91DF9184
:103800000895DF93CF93CDB7DEB7C550D0400FB644
:10381000F894DEBF0FBECDBF8B839C836A830A8082
:103820000092B000CB5FDF4F0FB6F894DEBF0FBE43
:10383000CDBFCF91DF910895DF93CF93CDB7DEB7A2
:10384000C550D0400FB6F894DEBF0FBECDBF8A83FF
:103850009B8328E02C838C81CB5FDF4F0FB6F894DD
:10386000DEBF0FBECDBFCF91DF910895FF93EF93E1
:10387000BF93AF939F938F937F936F935F934F9378
:103880003F932F931F920F920FB60F92112426EDA4
:1038900093E0822F0E94D7170F900FBE0F901F90BA
:1038A0002F913F914F915F916F917F918F919F9158
:1038B000AF91BF91EF91FF911895FF93EF93BF9355
:1038C000AF939F938F937F936F935F934F933F93A8
:1038D0002F931F920F920FB60F92112422E094E0C3
:1038E000822F0E94D7170F900FBE0F901F902F911D
:1038F0003F914F915F916F917F918F919F91AF9188
:10390000BF91EF91FF911895FF93EF93BF93AF9302
:103910009F938F937F936F935F934F933F932F93D7
:103920001F920F920FB60F9211242EE294E0822F75
:103930000E94D7170F900FBE0F901F902F913F91AD
:103940004F915F916F917F918F919F91AF91BF91B7
:10395000EF91FF9118952CE372E0622F86ED93E0D2
:103960000E94261868E572E082E094E00E94261822
:0E39700064E772E08EE294E00E94261808954B
:10397E000000000000000000000000000000000039
:10398E000000000000000000000000000000000029
:10399E00000000000400FCFF0000D00A000024011B
:1039AE000400FCFF2E01D00A00003001303132330A
:1039BE00343536373839414243444546000000001D
:1039CE00240027002A000000000000000000000074
:1039DE0000000000000000000000250028002B0061
:1039EE0000000000000000000000000000000000C9
:1039FE000000000023002600290000000000000047
:103A0E000000000000000000000004040404040490
:103A1E00040402020202020203030303030301026F
:103A2E00040810204080010204081020010204083E
:103A3E001020AA02010000000A000000640000002D
:103A4E00E803000010270000A086010040420F008E
:103A5E008096980000E1F50500CA9A3B0400FCFF31
:103A6E000000390BF00B2D0C0000EC010600FAFFE4
:103A7E003A01D00A0000FC012C00D4FF00005706CA
:103A8E0057065706570657065706570600000802F0
:103A9E002C00D4FF1E025706570657065706570628
:103AAE005706570657065706000020022C00D4FF73
:103ABE003A02C319151ADE19301A691988194A1AE9
:103ACE00A819F81900003C022C00D4FF3A02C61ABD
:103ADE001B1BE11A361B641A841A511BAA1AFC1AF4
:103AEE00000058022C00D4FF1E026B1BC01BA61B2D
:103AFE00011C861BDB1B1C1C00007402737461729C
:103B0E00740053746F7000557000446F776E0052DE
:103B1E0069676874004C656674002D323134373431
:103B2E0038333634380001300040230000000100E5
:103B3E00FFFF01003F000A0D0025446174652074EB
:103B4E00696D652025642C2073706163652074692E
:103B5E006D652025642C206576656E7420256400C5
:103B6E00496E76616C6964206279206576656E7443
:103B7E0000496E76616C69642062792070726561AD
:103B8E006D626C6500496E76616C696420627920A5
:103B9E0064617461001C496E76616C69642062799F
:103BAE00206164647265737320584F52202564201F
:103BBE00256400496E76616C696420627920636FBA
:103BCE006D6D616E6420584F5200496E76616C695E
:0C3BDE00642062792072657065617400DB
:00000001FF
