:100000000C9434000C94D2070C94D2070C94D207B1
:100010000C94D2070C94D2070C94D2070C94720A59
:100020000C94830A0C94BC0F0C94D2070C94500AC5
:100030000C94610A0C94950F0C942E0A0C943F0AB0
:100040000C946E0F0C94D2070C94D2070C94D20728
:100050000C94D2070C94D2070C94D2070C94D207BC
:100060000C94D2070C94D2071124EFEFEDBFE8E017
:10007000EEBFA0E0B1E0D3E0EEEEFFE102C00590FC
:100080000D92A433BD07D9F7A4E3B3E0D3E00C94F9
:100090004A001D92A03DBD07E1F70C944F000E945D
:1000A000E60028E493E040E855E260EA72E0822F3F
:1000B0000E94FD088CE493E0612D2091760330913D
:1000C0007703F90124852584E22FF22D09958CE42C
:1000D00093E063E03091760320917703E32FF22FD2
:1000E00026892788E22FF22D09950E94D307612DDA
:1000F000A3E08A2F0E941C08612DA3E08A2F0E9492
:10010000D50762E0712D812D912D0E94FB0761E0E2
:10011000A3E08A2F0E94D5076AE0712D812D912DD1
:100120000E94FB07612DA3E08A2F0E94D50761E0A2
:10013000A3E08A2F0E941C0820E432E44FE0512DF6
:1001400061E0A3E08A2F0E94940A609334037093C5
:100150003503809336039093370320913403309115
:10016000350340913603509137032F3F2FEF32076D
:100170002FEF42072FEF520709F421C020913403DB
:100180003091350340913603509137036AE3712D66
:10019000812D912D0E9424026093380370933903BE
:1001A00068E373E088E493E042E020914A033091F1
:1001B0004B03F90120852184E22FF22D099560E49B
:1001C00072E48FE0912D0E94FB0791CF0E94E30F14
:1001D000089508950895DF93CF93CDB7DEB7C45047
:1001E000D0400FB6F894DEBF0FBECDBFCC5FDF4F5F
:1001F0000FB6F894DEBF0FBECDBFCF91DF9108954B
:10020000DF93CF93CDB7DEB7C450D0400FB6F8948C
:10021000DEBF0FBECDBFCC5FDF4F0FB6F894DEBFA1
:100220000FBECDBFCF91DF910895A82FB92F1D929A
:100230002D923D924D925D926D927D928D929D9206
:10024000AD92BD92CD92DD92ED92FD920D931D93F4
:10025000CD93DD932DB73EB72D933D932F913F91D5
:100260002D933D933F932F9388270895A82FB92F5F
:100270001D902D903D904D905D906D907D908D9056
:100280009D90AD90BD90CD90DD90ED90FD900D9145
:100290001D91CD91DD912D913D910FB6F8943EBF0A
:1002A0000FBE2DBF2F913F912D913D913F932F93E5
:1002B000862F0895161617065CF4680F791F05C07F
:1002C000FC01408321E0820F911D86179707C0F340
:1002D0000895DF93CF939F928F927F926F925F9258
:1002E0004F923F922F92CDB7DEB7C450D0400FB699
:1002F000F894DEBF0FBECDBF8A839B83262E972E38
:10030000822E332EE22DF92D40805180411451046C
:1003100019F46A807B8033C02A813B812115310525
:10032000B1F4F201208131811216130680F4F2013A
:100330006081F201718182E090E08C0F9D1F0E942C
:1003400093072FEF3FEFE22DF92D208331832A8190
:100350003B812115310589F0F2016081F201718143
:100360008A819B81412D0E945A013A812B81380D4F
:10037000231DE32FF22F408251826A807B80C301CC
:10038000CC5FDF4F0FB6F894DEBF0FBECDBF2F900E
:100390003F904F905F906F907F908F909F90CF9104
:1003A000DF9108957F926F925F924F923F922F92CA
:1003B000282E592E362E472E39012114510409F4C6
:1003C0003CC0E32DF42D208131812115310509F444
:1003D00034C0E32DF42D208131812F3F2FEF3207E0
:1003E00009F024C02114510451F0222D352D260D81
:1003F000371DF901208131812115310539F462ED74
:10040000712D812D912D0E94230717C0222D352D8E
:10041000260D371DF90110821182822D952D0E9423
:10042000A607E32DF42D1082118207C0422D460D40
:10043000571CE42FF52D108211822F903F904F9082
:100440005F906F907F9008950F93FF92EF92CF92FD
:10045000BF92AF929F928F927F926F925F924F92D4
:100460003F922F92362E972EA82E492E522E232EB3
:100470003A01012DF12CE12CC12C31149104A1047D
:10048000410479F40E94EA00B82E892E0E944C069D
:10049000AC0168EC712D812D912D2B2D382D0E94F2
:1004A000EE06511421046104710409F452C0B22C07
:1004B000652D7B2DC3010E944D03882E212C632DB9
:1004C000792D8A2D942D0E944D03212D8816220608
:1004D0000CF43FC0782D922D781B920B272F332DD3
:1004E000492D5A2D642D222331F0330F441F551FFF
:1004F000661F2A95D1F7711591050CF42AC0A1E069
:100500007A0F911D272F21509109722F5316B4068F
:1005100065067606B0F0531AB40A650A760A372ED5
:10052000A1E04A2E812D212D212C332031F0440CC5
:10053000881F221F221C3A94D1F7040DF81EE21ED8
:10054000C21C6695579547953795171619060CF4F2
:10055000D9CF602F7F2D8E2D9C2D2F903F904F90C7
:100560005F906F907F908F909F90AF90BF90CF9053
:10057000EF90FF900F910895EF92CF92BF92AF92BC
:100580009F928F927F926F925F924F923F922F92A3
:10059000762E872E982E292E322E432E542E652EFF
:1005A000711481049104210469F40E94EA005C0141
:1005B0000E944C06AC0168EC712D812D912D9501A6
:1005C0000E94EE06412D311441045104610484F46B
:1005D00041E0632D9201562D2095309550956195FF
:1005E0002F4F3F4F5F4FE62EC22EB32EA52E04C0D5
:1005F000E32CC42CB52CA62C711481049104210485
:10060000A4F4403041E009F0412D672D582D392DDB
:10061000222D50953095209561955F4F3F4F2F4F7C
:10062000462E352E532E622E04C0472C382C592CC2
:10063000622C4115A9F02E2D3C2D4B2D5A2D642DE9
:10064000732D852D962D0E9424027095809590958E
:1006500061957F4F8F4F9F4F762E272E4C010DC0F7
:100660002E2D3C2D4B2D5A2D642D732D852D962D21
:100670000E942402762E272E4C01672D722DC40174
:100680002F903F904F905F906F907F908F909F90B2
:10069000AF90BF90CF90EF9008952F92582F4FEFCB
:1006A0008FEF461787071506190681E008F0812DA0
:1006B000880F880F880F880F282F222331F09695F6
:1006C0005795779567952A95D1F7AFEFA617170637
:1006D0001506190621E008F0212D220F220F220F06
:1006E000822B282F2870222331F0969557957795E5
:1006F00067952A95D1F7E2E1F1E0E60FF11D20813F
:10070000822B2F9008952F92382F292F31152105F4
:1007100071F0832F922F61E0712DE32FF22F208152
:100720003181F901208D218CE22FF22D09952F9036
:1007300008953F922F921C01CB0122E433E0B901CE
:10074000FB0122E030E0240F351FD90101900D920A
:1007500000800C92FB0140835183FA0180839183D6
:10076000FA01248235822F903F900895DF93CF9332
:10077000EF92CF92BF92AF929F928F927F926F92A1
:100780005F924F923F922F92CDB7DEB7C850D040C4
:100790000FB6F894DEBF0FBECDBF982E692E1B0199
:1007A0002A0134E423E0832E722E84E1912D0E94ED
:1007B000BA07E82DF72D24E030E0280F391FD901C2
:1007C00001900D9200800C92E82DF72D808391838B
:1007D000FC0190826182FC0122823382E82EC92EC4
:1007E000EE2DFC2D10861186128613864C825D82BA
:1007F0002E823F821A821B82812C212C312C412C8B
:10080000512C912CA12CB12C0E94EA003C0142C039
:100810006C807D8066E070E06C0F7D1F84E090E06E
:100820008C0F9D1F0E944F062E813F81211531059F
:1008300009F44AC02C813D812115310509F444C0D9
:1008400058149204A304B4049CF020E1820E211CED
:10085000311C411C682D722D232D342D660F771FFE
:10086000221F331F82E090E08C0F9D1F0E94B00773
:100870004A815B81252D392D220F331FFA01E20FAA
:10088000F31F0E8001920F80008221E0520E911C16
:10089000A11CB11C40910C0150910D0120910E0141
:1008A00030910F0154169506A206B3066CF42C8104
:1008B0003D816216730640F40E9441062C813D8101
:1008C0002817390708F4A4CF3E2D4C2DE32FF42F21
:1008D00054869586A686B786E32FF42F70960A80F5
:1008E00001920B800082C85FDF4F0FB6F894DEBF25
:1008F0000FBECDBF2F903F904F905F906F907F9035
:100900008F909F90AF90BF90CF90EF90CF91DF915D
:1009100008951F930F933F922F929091440320903C
:10092000450320910801309109012115310509F491
:100930002EC09115210409F42AC0E92FF22D008957
:10094000E92FF22D1189E92FF22D2485E92FF22DBF
:100950003585E92FF22D4685E92FF22D5785E92FB0
:10096000F22D6281E92FF22D7381E92FF22D808122
:10097000E92FF22D91812090080130900901F101B9
:10098000099569ED712D812D912D0E94810620918F
:100990000001309101012115310529F489ED912DD6
:1009A0000E943D0708C06091020170910301812DF2
:1009B000912D0E9481062F903F900F911F910895D5
:1009C0001F930F937F926F925F924F923F922F925D
:1009D0001C012B013A012091460330914703211558
:1009E000310531F069ED712D812D912D0E94810627
:1009F00031E0212D3093460320934703A301B20138
:100A0000C1010E94B603212D312D2093460330935E
:100A1000470330904203409043033114410411F4E2
:100A20000E948904909144032090450320910A017B
:100A300030910B012115310509F429C091152104CC
:100A400009F425C0E92FF22D0089E92FF22D118933
:100A5000E92FF22D2485E92FF22D3585E92FF22D8E
:100A60004685E92FF22D5785E92FF22D6281E92F76
:100A7000F22D7381E92FF22D8081E92FF22D9181E2
:100A800020900A0150900B01E22DF52D0995E32DE0
:100A9000F42D80819181A1E06A2F0E9436012F9070
:100AA0003F904F905F906F907F900F911F910895AE
:100AB0003F922F9232E423E0332E222EE32DF22DAB
:100AC000208131812115310539F46FEF712D812D90
:100AD000912D0E9481060CC0E32DF22D20813181E1
:100AE000F9013296A32DB22D01900D9200800C9247
:100AF0002F903F9008955F924F923F922F922090B7
:100B00004403309045032114310439F461E0712D20
:100B1000812D912D0E9481062DC0F1012085318506
:100B200042855385211531054105510521F4F10117
:100B30004080518002C0412C512CF101349601902B
:100B400000924403008000924503F101208931891D
:100B50002115310531F0F1018089F10191890E945F
:100B6000A607C1010E94C407212D312D2093000149
:100B700030930101C2012F903F904F905F900895F4
:100B80007F926F925F924F923F922F9220904403F8
:100B9000309045032114310431F0F1012481358175
:100BA0002115310539F461E0712D812D912D0E94BF
:100BB000810634C0F10124813581F9012085318518
:100BC00042855385211531054105510539F4F1015F
:100BD00024813581F9014080518002C0412C512C83
:100BE000F10164807580F301349634E020E0320D29
:100BF000231DA32FB22F01900D9200800C92F301C0
:100C0000208931892115310531F0F3018089F30103
:100C100091890E94A607C3010E94C407C2012F90B8
:100C20003F904F905F906F907F9008953F922F92EA
:100C300020904203309043032114310411F40E94A8
:100C400089043091440340914503E32FF42F10862B
:100C5000118612861386F10180819181A1E06A2FAD
:100C60000E9436012F903F9008950E947B050E94BC
:100C7000830308950E94C0050E9483030E94160604
:100C8000089520913E0330913F038091400390915D
:100C90004103820F931F0895812D912D08957F9216
:100CA0006F925F924F923F922F921C012B01F201A3
:100CB0006081F2017181F1018081F10191810E94D5
:100CC00000013C01F2016081F2017181F10180813A
:100CD000F10191810E94EB00F10160827182F201C9
:100CE000808391832F903F904F905F906F907F9083
:100CF00008950E94E90008950E9479060E94CE0797
:100D00000895562F6FEF65171706180619066CF42D
:100D10006FEF312D412D212D60933A0330933B032A
:100D200040933C0320933D0308C050933A037093D3
:100D30003B0380933C0390933D030E947C069F926B
:100D40008F927F926F925F924F923F922F92362EA8
:100D5000472E542E652E722E832E20910401309141
:100D600005012115310569F0272D382D452D562D0A
:100D7000632D742D2090040190900501E22DF92D32
:100D80000995232D2093020140920301652D762DB4
:100D90006093000170930101472D582D409310017D
:100DA00050931101309142032091430331152105E5
:100DB00021F0812D912D0E94E0046091020170913B
:100DC0000301812D912D0E9481062F903F904F901D
:100DD0005F906F907F908F909F900895DF93CF9357
:100DE0005F924F923F922F92CDB7DEB7C650D04060
:100DF0000FB6F894DEBF0FBECDBF1B012C014A8396
:100E00005B832C833D8362E070E06C0F7D1F84E088
:100E100090E08C0F9D1F0E944F062C813D814A81DE
:100E20005B81B101C2010E949F06CA5FDF4F0FB60E
:100E3000F894DEBF0FBECDBF2F903F904F905F90D4
:100E4000CF91DF9108957F926F925F924F923F9280
:100E50002F921B012C010E94EA003C010E944C06CB
:100E6000AC01B101C20193010E94EE062F903F90A8
:100E70004F905F906F907F900895DF93CF93CDB7A1
:100E8000DEB7C650D0400FB6F894DEBF0FBECDBF60
:100E9000282F20930201909303010E944C068C831B
:100EA0009D830E94EA008A839B8364E070E06C0F5C
:100EB0007D1F82E090E08C0F9D1F0E944F060C80EA
:100EC000009200010D80009201010A800092100141
:100ED0000B80009211016091020170910301812D3C
:100EE000912D0E9481063F922F9230910601209110
:100EF00007013115210539F02091060120900701E5
:100F0000E22FF22D09950E94EA001C010E944C0676
:100F1000AC0163ED712D812D912D91010E94EE06A2
:100F20002F903F9008954F923F922F921C01CB013A
:100F30002091140240901502E22FF42D0995F10141
:100F4000808391832F903F904F9008952F9220910E
:100F5000160220901702E22FF22D09952F90089586
:100F60002F9220911C0220901D02E22FF22D099554
:100F70002F9008952F922091140220901502E22FB5
:100F8000F22D09952F9008952F922091160220900E
:100F90001702E22FF22D09952F9008950C94D00797
:100FA000F894FFCFFFCF789408952F93AF93BF931A
:100FB000CF93DF93ACE8B2E0A80FB11D2C91A8E766
:100FC000B2E0A80FB11D8C91880FA4E4B2E0A80F85
:100FD000B11DCD91DC91888160FF0C94F207822BCA
:100FE0000C94F407209582238883DF91CF91BF91E1
:100FF000AF912F9108950000000000000000000054
:101000009105810571052F9323E062072F9198F0D8
:1010100062507040804090406150704080409040ED
:10102000161617061806190631F000000000000019
:1010300000000000F1CF0895DF93CF93CDB7DEB766
:10104000C650D0400FB6F894DEBF0FBECDBF8A8326
:101050006B833A81212DE8E7F2E0E30FF21F008075
:101060000C823A81212DECE8F2E0E30FF21F0080C0
:101070000D823B81311531F0232F3A95213009F44F
:101080001DC056C03C81212D330F221FEAE2F2E041
:10109000E30FF21F21913081F90120813D81322B34
:1010A0004C81212D440F221FEAE2F2E0E40FF21FEF
:1010B00021914081E22FF42F30833AC03C81212DD1
:1010C000330F221FEAE2F2E0E30FF21F2191408189
:1010D0003D813095E22FF42F208132234C81212D48
:1010E000440F221FEAE2F2E0E40FF21F2191408157
:1010F000E22FF42F30833C81212D330F221FE4E4B3
:10110000F2E0E30FF21F219140813D813095E22F03
:10111000F42F208132234C81212D440F221FE4E43F
:10112000F2E0E40FF21F21914081E22FF42F30838F
:10113000CA5FDF4F0FB6F894DEBF0FBECDBFCF91B1
:10114000DF910895DF93CF93CDB7DEB7C450D04081
:101150000FB6F894DEBF0FBECDBF8A839B832A8172
:101160003B81F90140814395F90140832A813B810C
:10117000F90120812431E9F42A813B81412DF901D3
:1011800040832A813B81F9016181212D38EE43E0C2
:10119000562F722F539F602D212D739F200D549F2A
:1011A000200D1124722F812D27FD8095982F0E94EC
:1011B000FB07CC5FDF4F0FB6F894DEBF0FBECDBF8D
:1011C000CF91DF910895DF93CF93CDB7DEB7C550B0
:1011D000D0400FB6F894DEBF0FBECDBF8A839B838D
:1011E00021E02C838C81CB5FDF4F0FB6F894DEBFFC
:1011F0000FBECDBFCF91DF910895DF93CF93CDB7D1
:10120000DEB7C454D0400FB6F894DEBF0FBECDBFDA
:101210008E839F836C837D834A835B8324E070E0AD
:101220002C0F7D1F622F8E819F8122E0312D412D59
:10123000512D0E9469018E839F833E812F8131153C
:10124000210509F46EC048E050E04C0F5D1F6EE0D0
:1012500070E06C0F7D1F81E0912D0E9499030E9428
:1012600015018DA3811509F024C06A817B81812D30
:10127000912D34E0332331F0660F771F881F991FBB
:101280003A95D1F7212D34E244EF512D0E94BC0252
:1012900061507109810991096093C4007093C50080
:1012A000212D2093C00028E12093C10026E820933F
:1012B000C2000E9458052DA1211509F432C046E252
:1012C00050E04C0F5D1F6CE270E06C0F7D1F81E001
:1012D000912D0E9499030E941501E3E4F0E0EC0FC8
:1012E000FD1F8083811581F464E070E06C0F7D1F29
:1012F0008E819F8122E0312D412D512D0E94D201FE
:101300000E9458050E9416060E945805E3E4F0E08A
:10131000EC0FFD1F2081211511F00E943A060E945A
:1013200035068E819F81CC5BDF4F0FB6F894DEBF10
:101330000FBECDBFCF91DF910895DF93CF93CDB78F
:10134000DEB7C750D0400FB6F894DEBF0FBECDBF9A
:101350008D839E836A837B834C831EC02091C00053
:101360002072E1F32A813B81F90100800092C600DE
:101370004A813B8121E0420F311D4A833B832C810E
:101380002A952C832D813E81F9012181121620F4AA
:101390008D819E810E94A2082C81121608F4DECF56
:1013A000C95FDF4F0FB6F894DEBF0FBECDBFCF9140
:1013B000DF910895DF93CF93CDB7DEB7C750D0400C
:1013C0000FB6F894DEBF0FBECDBF8D839E836A83B8
:1013D0007B834C8314C02091C0002078E1F32A81E4
:1013E0003B81F9010090C60000823A814B8121E0E7
:1013F000320F411D3A834B832C812A952C832C81FB
:10140000121648F3C95FDF4F0FB6F894DEBF0FBE68
:10141000CDBFCF91DF910895AF93BF93EF93FF932B
:10142000DC01ED91FD91E115F10599F02F933F93CA
:101430004F935F936F937F93CF93DF938D919C91A5
:101440000995DF91CF917F916F915F914F913F917E
:101450002F91FF91EF91BF91AF9108951F920F923D
:101460000FB60F9211248F939F938EE693E0D4DFF3
:101470009F918F910F900FBE0F901F9018951F9204
:101480000F920FB60F9211248F939F9382E793E0F0
:10149000C3DF9F918F910F900FBE0F901F901895F3
:1014A0001F920F920FB60F9211248F939F938AE988
:1014B00093E0B2DF9F918F910F900FBE0F901F901E
:1014C00018951F920F920FB60F9211248F939F932E
:1014D0008EE993E0A1DF9F918F910F900FBE0F9047
:1014E0001F9018951F920F920FB60F9211248F9391
:1014F0009F9386EC93E090DF9F918F910F900FBEAA
:101500000F901F9018951F920F920FB60F921124F3
:101510008F939F938AEC93E07FDF9F918F910F9041
:101520000FBE0F901F901895DF93CF93CDB7DEB706
:10153000C251D0400FB6F894DEBF0FBECDBF8A8334
:101540006B832C833D834E835F832FEF3FEF4FEF01
:101550005FEF288739874A875B8706B4098A2C8121
:101560003D814E815F8156954795379527955695D4
:101570004795379527952C833D834E835F833A812A
:10158000212DECE8F2E0E30FF21F00800C863A8197
:10159000212DE8E7F2E0E30FF21F3081212D330F18
:1015A000221FEEE5F2E0E30FF21F01900E860080AD
:1015B0000F862B81211519F00C840D8628C01D86FD
:1015C00026C006B4088A28893989231B298B798982
:1015D000212D312D412D8C815D819E816F81781768
:1015E00025073907460708F0AAC09989212D312D12
:1015F000412D5C816D817E818F81591B620B730B44
:10160000840B5C836D837E838F830888098A2E8593
:101610003F85F90130812C8523233D85231709F46B
:10162000D0CF26C006B4088A28893989231B298B84
:101630005989212D312D412D6C818D819E817F8194
:10164000561728073907470708F079C09989212DCF
:10165000312D412D5C816D817E818F81591B620B03
:10166000730B840B5C836D837E838F830888098A68
:101670002E853F85F90130812C8523233D85231755
:1016800009F0D0CF212D412D312D512D28874987AB
:101690003A875B872EC006B4088A28893989231BBC
:1016A000298B9989312D212D412D588569857A8580
:1016B0008B85590F631F721F841F588769877A872C
:1016C0008B870888098A7C814D812E816F8198855E
:1016D00089855A853B85971784075207360748F056
:1016E0002FEF3FEF4FEF5FEF288739874A875B8700
:1016F00026C02E853F85F90130812C8523233D8529
:10170000231709F4C8CF288539854A855B852F3F83
:101710002FEF32072FEF42072FEF520781F0288576
:1017200039854A855B85220F331F441F551F220FC1
:10173000331F441F551F288739874A875B87688571
:1017400079858A859B85CE5EDF4F0FB6F894DEBF24
:101750000FBECDBFCF91DF910895DF93CF933F921E
:101760002F92CDB7DEB7C950D0400FB6F894DEBF88
:101770000FBECDBF8A839B833A812B81E32FF22F4B
:1017800020A02A942FEF2C832C8123952C832A814F
:101790005B814C81312D440F331F440F331FE22FE7
:1017A000F52FE40FF31F01900D8201900E8201903E
:1017B0000F82008008863F8128853115210531F48C
:1017C0002D813E80E22FF32D099507C08F819885EA
:1017D0002D813E80E22FF32D09952C81221508F4EE
:1017E000D3CFC75FDF4F0FB6F894DEBF0FBECDBFBC
:1017F0002F903F90CF91DF910895DF93CF93CDB796
:10180000DEB7C356D0400FB6F894DEBF0FBECDBFD3
:101810008C839D836A837B8322E070E02C0F7D1F85
:10182000622F8C819D812AE2312D412D512D0E9404
:1018300069018C839D833C812D813115210509F43B
:1018400074C046E250E04C0F5D1F6CE270E06C0F1C
:101850007D1F81E0912D0E9499030E941501E3E410
:10186000F0E0EC0FFD1F8083811509F022C026E017
:1018700030E02C0F3D1FE4E4F0E0EC0FFD1F21935E
:101880003083412D60E2712DE4E4F0E0EC0FFD1FA8
:10189000819190810E945A013C814D8120E2E6E0D5
:1018A000F0E0EC0FFD1FA32FB42F01900D922A95AD
:1018B000E1F70E945805E3E4F0E0EC0FFD1F208102
:1018C000211509F432C046E450E04C0F5D1F6CE472
:1018D00070E06C0F7D1F81E0912D0E9499030E94A2
:1018E0001501E4E4F0E0EC0FFD1F8083811581F425
:1018F00062E070E06C0F7D1F8C819D812AE2312DAA
:10190000412D512D0E94D2010E9458050E941606B9
:101910000E945805E4E4F0E0EC0FFD1F2081211542
:1019200011F00E943A060E9435068C819D81CD59A6
:10193000DF4F0FB6F894DEBF0FBECDBFCF91DF9162
:101940000895DF93CF93CDB7DEB7C550D0400FB623
:10195000F894DEBF0FBECDBF8A839B8325B5287068
:10196000121621E008F0212D2C838C81CB5FDF4FF4
:101970000FB6F894DEBF0FBECDBFCF91DF910895B3
:10198000DF93CF93CDB7DEB7C550D0400FB6F894F4
:10199000DEBF0FBECDBF8B839C836A8325B5277FB7
:1019A0003A81369536953695322B35BDCB5FDF4F74
:1019B0000FB6F894DEBF0FBECDBFCF91DF91089573
:1019C000DF93CF93CDB7DEB7C550D0400FB6F894B4
:1019D000DEBF0FBECDBF8A839B8325B527702C83C6
:1019E0008C81CB5FDF4F0FB6F894DEBF0FBECDBF4B
:1019F000CF91DF910895DF93CF93CDB7DEB7C55078
:101A0000D0400FB6F894DEBF0FBECDBF8A839B8354
:101A100000906E000C828C81CB5FDF4F0FB6F89484
:101A2000DEBF0FBECDBFCF91DF910895DF93CF937F
:101A3000CDB7DEB7C550D0400FB6F894DEBF0FBEAD
:101A4000CDBF8A839B8304B40C828C81CB5FDF4F34
:101A50000FB6F894DEBF0FBECDBFCF91DF910895D2
:101A6000DF93CF93CDB7DEB7C550D0400FB6F89413
:101A7000DEBF0FBECDBF8B839C836A8325B5287FD5
:101A80003A81322B35BDCB5FDF4F0FB6F894DEBF06
:101A90000FBECDBFCF91DF910895DF93CF93CDB728
:101AA000DEB7C550D0400FB6F894DEBF0FBECDBF35
:101AB0008B839C836A830A8000926E00CB5FDF4F2A
:101AC0000FB6F894DEBF0FBECDBFCF91DF91089562
:101AD000DF93CF93CDB7DEB7C550D0400FB6F894A3
:101AE000DEBF0FBECDBF8B839C836A830A8004BC9C
:101AF000CB5FDF4F0FB6F894DEBF0FBECDBFCF91E7
:101B0000DF910895DF93CF93CDB7DEB7C550D040B6
:101B10000FB6F894DEBF0FBECDBF8A839B8328E04B
:101B20002C838C81CB5FDF4F0FB6F894DEBF0FBEE6
:101B3000CDBFCF91DF910895DF93CF93CDB7DEB7BF
:101B4000C550D0400FB6F894DEBF0FBECDBF8A831C
:101B50009B83209181002870121621E008F0212D2E
:101B60002C838C81CB5FDF4F0FB6F894DEBF0FBEA6
:101B7000CDBFCF91DF910895DF93CF93CDB7DEB77F
:101B8000C550D0400FB6F894DEBF0FBECDBF8B83DB
:101B90009C836A832A81203021E009F0212D220FC5
:101BA000220F220F20953091810032233093810043
:101BB000CB5FDF4F0FB6F894DEBF0FBECDBFCF9126
:101BC000DF910895DF93CF93CDB7DEB7C550D040F6
:101BD0000FB6F894DEBF0FBECDBF8A839B832091E2
:101BE000810027702C838C81CB5FDF4F0FB6F89478
:101BF000DEBF0FBECDBFCF91DF910895DF93CF93AE
:101C0000CDB7DEB7C550D0400FB6F894DEBF0FBEDB
:101C1000CDBF8A839B8300906F000C828C81CB5F49
:101C2000DF4F0FB6F894DEBF0FBECDBFCF91DF916F
:101C30000895DF93CF93CDB7DEB7C550D0400FB630
:101C4000F894DEBF0FBECDBF8A839B8300908000D7
:101C50000C828C81CB5FDF4F0FB6F894DEBF0FBED6
:101C6000CDBFCF91DF910895DF93CF93CDB7DEB78E
:101C7000C550D0400FB6F894DEBF0FBECDBF8B83EA
:101C80009C836A8320918100287F3A81322B309394
:101C90008100CB5FDF4F0FB6F894DEBF0FBECDBF24
:101CA000CF91DF910895DF93CF93CDB7DEB7C550C5
:101CB000D0400FB6F894DEBF0FBECDBF8B839C83A0
:101CC0006A830A8000926F00CB5FDF4F0FB6F894F3
:101CD000DEBF0FBECDBFCF91DF910895DF93CF93CD
:101CE000CDB7DEB7C550D0400FB6F894DEBF0FBEFB
:101CF000CDBF8B839C836A830A8000928000CB5F78
:101D0000DF4F0FB6F894DEBF0FBECDBFCF91DF918E
:101D10000895DF93CF93CDB7DEB7C550D0400FB64F
:101D2000F894DEBF0FBECDBF8A839B8320E12C8356
:101D30008C81CB5FDF4F0FB6F894DEBF0FBECDBFF7
:101D4000CF91DF910895DF93CF93CDB7DEB7C55024
:101D5000D0400FB6F894DEBF0FBECDBF8A839B8301
:101D6000009070000C828C81CB5FDF4F0FB6F8942F
:101D7000DEBF0FBECDBFCF91DF910895DF93CF932C
:101D8000CDB7DEB7C550D0400FB6F894DEBF0FBE5A
:101D9000CDBF8A839B832091B1002870121621E069
:101DA00008F0212D2C838C81CB5FDF4F0FB6F89488
:101DB000DEBF0FBECDBFCF91DF910895DF93CF93EC
:101DC000CDB7DEB7C550D0400FB6F894DEBF0FBE1A
:101DD000CDBF8A839B8304B40C828C81CB5FDF4FA1
:101DE0000FB6F894DEBF0FBECDBFCF91DF9108953F
:101DF000DF93CF93CDB7DEB7C550D0400FB6F89480
:101E0000DEBF0FBECDBF8B839C836A830A800092A6
:101E10007000CB5FDF4F0FB6F894DEBF0FBECDBFB3
:101E2000CF91DF910895DF93CF93CDB7DEB7C55043
:101E3000D0400FB6F894DEBF0FBECDBF8B839C831E
:101E40006A832A81203021E009F0212D220F220F00
:101E5000220F20953091B10032233093B100CB5F37
:101E6000DF4F0FB6F894DEBF0FBECDBFCF91DF912D
:101E70000895DF93CF93CDB7DEB7C550D0400FB6EE
:101E8000F894DEBF0FBECDBF8B839C836A830A802C
:101E90000092B000CB5FDF4F0FB6F894DEBF0FBEED
:101EA000CDBFCF91DF910895DF93CF93CDB7DEB74C
:101EB000C550D0400FB6F894DEBF0FBECDBF8A83A9
:101EC0009B8328E02C838C81CB5FDF4F0FB6F89487
:101ED000DEBF0FBECDBFCF91DF910895FF93EF938B
:101EE000BF93AF939F938F937F936F935F934F9322
:101EF0003F932F931F920F920FB60F9211242CE451
:101F000093E0822F0E94AD0B0F900FBE0F901F9099
:101F10002F913F914F915F916F917F918F919F9101
:101F2000AF91BF91EF91FF911895FF93EF93BF93FE
:101F3000AF939F938F937F936F935F934F933F9351
:101F40002F931F920F920FB60F92112428E793E060
:101F5000822F0E94AD0B0F900FBE0F901F902F91FC
:101F60003F914F915F916F917F918F919F91AF9131
:101F7000BF91EF91FF911895FF93EF93BF93AF93AC
:101F80009F938F937F936F935F934F933F932F9381
:101F90001F920F920FB60F92112424EA93E0822F22
:101FA0000E94AD0B0F900FBE0F901F902F913F918D
:101FB0004F915F916F917F918F919F91AF91BF9161
:101FC000EF91FF9118952CE493E064EE72E0822F7C
:101FD0000E94FD0B88E793E060E073E00E94FD0B38
:0E1FE00084EA93E06CE173E00E94FD0B08952B
:101FEE0000000000000000000000000010000000D3
:101FFE000000FF00010102020202030303030303B8
:10200E000303040404040404040404040404040484
:10201E000404050505050505050505050505050564
:10202E000505050505050505050505050505050552
:10203E000505060606060606060606060606060634
:10204E000606060606060606060606060606060622
:10205E000606060606060606060606060606060612
:10206E000606060606060606060606060606060602
:10207E0006060707070707070707070707070707E4
:10208E0007070707070707070707070707070707D2
:10209E0007070707070707070707070707070707C2
:1020AE0007070707070707070707070707070707B2
:1020BE0007070707070707070707070707070707A2
:1020CE000707070707070707070707070707070792
:1020DE000707070707070707070707070707070782
:1020EE000707070707070707070707070707070772
:1020FE0007070000000000000000000000000000C4
:10210E00000000000000000000000000000024009D
:10211E0027002A0000000000000000000000000060
:10212E000000000000000000250028002B00000029
:10213E000000000000000000000000000000000091
:10214E00000023002600290000000000000000000F
:10215E000000000000000000040404040404040451
:10216E000202020202020303030303030102040834
:10217E0010204080010204081020010204081020E3
:10218E000400FCFF0000E3089D09DA090000A0022C
:10219E002C00D4FF000073077307730773077307D0
:1021AE00730773070000B0022C00D4FFC60273073A
:1021BE007307730773077307730773077307730741
:1021CE000000C8022C00D4FFE202FB0C4D0D160DD0
:1021DE00680DA10CC00C820DE00C300D0000E40265
:1021EE002C00D4FFE202FE0D530E190E6E0E9C0D46
:1021FE00BC0D890EE20D340E000000032C00D4FF3E
:10220E00C602A30EF80EDE0E390FBE0E130F540FBC
:04221E0000001C039D
:00000001FF
